{
  "_format": "hh-sol-artifact-1",
  "contractName": "gCOTI",
  "sourceName": "contracts/gCOTI.sol",
  "abi": [
    {
      "inputs": [
        {
          "internalType": "address",
          "name": "initialOwner",
          "type": "address"
        },
        {
          "internalType": "address",
          "name": "recipient",
          "type": "address"
        },
        {
          "internalType": "uint256",
          "name": "totalSupply",
          "type": "uint256"
        }
      ],
      "stateMutability": "nonpayable",
      "type": "constructor"
    },
    {
      "inputs": [],
      "name": "InvalidShortString",
      "type": "error"
    },
    {
      "inputs": [
        {
          "internalType": "string",
          "name": "str",
          "type": "string"
        }
      ],
      "name": "StringTooLong",
      "type": "error"
    },
    {
      "anonymous": false,
      "inputs": [
        {
          "indexed": true,
          "internalType": "address",
          "name": "owner",
          "type": "address"
        },
        {
          "indexed": true,
          "internalType": "address",
          "name": "spender",
          "type": "address"
        },
        {
          "indexed": false,
          "internalType": "uint256",
          "name": "value",
          "type": "uint256"
        }
      ],
      "name": "Approval",
      "type": "event"
    },
    {
      "anonymous": false,
      "inputs": [],
      "name": "EIP712DomainChanged",
      "type": "event"
    },
    {
      "anonymous": false,
      "inputs": [
        {
          "indexed": true,
          "internalType": "address",
          "name": "previousOwner",
          "type": "address"
        },
        {
          "indexed": true,
          "internalType": "address",
          "name": "newOwner",
          "type": "address"
        }
      ],
      "name": "OwnershipTransferred",
      "type": "event"
    },
    {
      "anonymous": false,
      "inputs": [
        {
          "indexed": false,
          "internalType": "address",
          "name": "account",
          "type": "address"
        }
      ],
      "name": "Paused",
      "type": "event"
    },
    {
      "anonymous": false,
      "inputs": [
        {
          "indexed": true,
          "internalType": "address",
          "name": "from",
          "type": "address"
        },
        {
          "indexed": true,
          "internalType": "address",
          "name": "to",
          "type": "address"
        },
        {
          "indexed": false,
          "internalType": "uint256",
          "name": "value",
          "type": "uint256"
        }
      ],
      "name": "Transfer",
      "type": "event"
    },
    {
      "anonymous": false,
      "inputs": [
        {
          "indexed": false,
          "internalType": "address",
          "name": "account",
          "type": "address"
        }
      ],
      "name": "Unpaused",
      "type": "event"
    },
    {
      "inputs": [],
      "name": "DOMAIN_SEPARATOR",
      "outputs": [
        {
          "internalType": "bytes32",
          "name": "",
          "type": "bytes32"
        }
      ],
      "stateMutability": "view",
      "type": "function"
    },
    {
      "inputs": [
        {
          "internalType": "address",
          "name": "owner",
          "type": "address"
        },
        {
          "internalType": "address",
          "name": "spender",
          "type": "address"
        }
      ],
      "name": "allowance",
      "outputs": [
        {
          "internalType": "uint256",
          "name": "",
          "type": "uint256"
        }
      ],
      "stateMutability": "view",
      "type": "function"
    },
    {
      "inputs": [
        {
          "internalType": "address",
          "name": "spender",
          "type": "address"
        },
        {
          "internalType": "uint256",
          "name": "amount",
          "type": "uint256"
        }
      ],
      "name": "approve",
      "outputs": [
        {
          "internalType": "bool",
          "name": "",
          "type": "bool"
        }
      ],
      "stateMutability": "nonpayable",
      "type": "function"
    },
    {
      "inputs": [
        {
          "internalType": "address",
          "name": "account",
          "type": "address"
        }
      ],
      "name": "balanceOf",
      "outputs": [
        {
          "internalType": "uint256",
          "name": "",
          "type": "uint256"
        }
      ],
      "stateMutability": "view",
      "type": "function"
    },
    {
      "inputs": [
        {
          "internalType": "uint256",
          "name": "amount",
          "type": "uint256"
        }
      ],
      "name": "burn",
      "outputs": [],
      "stateMutability": "nonpayable",
      "type": "function"
    },
    {
      "inputs": [
        {
          "internalType": "address",
          "name": "account",
          "type": "address"
        },
        {
          "internalType": "uint256",
          "name": "amount",
          "type": "uint256"
        }
      ],
      "name": "burnFrom",
      "outputs": [],
      "stateMutability": "nonpayable",
      "type": "function"
    },
    {
      "inputs": [],
      "name": "cap",
      "outputs": [
        {
          "internalType": "uint256",
          "name": "",
          "type": "uint256"
        }
      ],
      "stateMutability": "view",
      "type": "function"
    },
    {
      "inputs": [],
      "name": "decimals",
      "outputs": [
        {
          "internalType": "uint8",
          "name": "",
          "type": "uint8"
        }
      ],
      "stateMutability": "view",
      "type": "function"
    },
    {
      "inputs": [
        {
          "internalType": "address",
          "name": "spender",
          "type": "address"
        },
        {
          "internalType": "uint256",
          "name": "subtractedValue",
          "type": "uint256"
        }
      ],
      "name": "decreaseAllowance",
      "outputs": [
        {
          "internalType": "bool",
          "name": "",
          "type": "bool"
        }
      ],
      "stateMutability": "nonpayable",
      "type": "function"
    },
    {
      "inputs": [],
      "name": "eip712Domain",
      "outputs": [
        {
          "internalType": "bytes1",
          "name": "fields",
          "type": "bytes1"
        },
        {
          "internalType": "string",
          "name": "name",
          "type": "string"
        },
        {
          "internalType": "string",
          "name": "version",
          "type": "string"
        },
        {
          "internalType": "uint256",
          "name": "chainId",
          "type": "uint256"
        },
        {
          "internalType": "address",
          "name": "verifyingContract",
          "type": "address"
        },
        {
          "internalType": "bytes32",
          "name": "salt",
          "type": "bytes32"
        },
        {
          "internalType": "uint256[]",
          "name": "extensions",
          "type": "uint256[]"
        }
      ],
      "stateMutability": "view",
      "type": "function"
    },
    {
      "inputs": [
        {
          "internalType": "address",
          "name": "spender",
          "type": "address"
        },
        {
          "internalType": "uint256",
          "name": "addedValue",
          "type": "uint256"
        }
      ],
      "name": "increaseAllowance",
      "outputs": [
        {
          "internalType": "bool",
          "name": "",
          "type": "bool"
        }
      ],
      "stateMutability": "nonpayable",
      "type": "function"
    },
    {
      "inputs": [
        {
          "internalType": "address",
          "name": "to",
          "type": "address"
        },
        {
          "internalType": "uint256",
          "name": "amount",
          "type": "uint256"
        }
      ],
      "name": "mint",
      "outputs": [],
      "stateMutability": "nonpayable",
      "type": "function"
    },
    {
      "inputs": [],
      "name": "name",
      "outputs": [
        {
          "internalType": "string",
          "name": "",
          "type": "string"
        }
      ],
      "stateMutability": "view",
      "type": "function"
    },
    {
      "inputs": [
        {
          "internalType": "address",
          "name": "owner",
          "type": "address"
        }
      ],
      "name": "nonces",
      "outputs": [
        {
          "internalType": "uint256",
          "name": "",
          "type": "uint256"
        }
      ],
      "stateMutability": "view",
      "type": "function"
    },
    {
      "inputs": [],
      "name": "owner",
      "outputs": [
        {
          "internalType": "address",
          "name": "",
          "type": "address"
        }
      ],
      "stateMutability": "view",
      "type": "function"
    },
    {
      "inputs": [],
      "name": "pause",
      "outputs": [],
      "stateMutability": "nonpayable",
      "type": "function"
    },
    {
      "inputs": [],
      "name": "paused",
      "outputs": [
        {
          "internalType": "bool",
          "name": "",
          "type": "bool"
        }
      ],
      "stateMutability": "view",
      "type": "function"
    },
    {
      "inputs": [
        {
          "internalType": "address",
          "name": "owner",
          "type": "address"
        },
        {
          "internalType": "address",
          "name": "spender",
          "type": "address"
        },
        {
          "internalType": "uint256",
          "name": "value",
          "type": "uint256"
        },
        {
          "internalType": "uint256",
          "name": "deadline",
          "type": "uint256"
        },
        {
          "internalType": "uint8",
          "name": "v",
          "type": "uint8"
        },
        {
          "internalType": "bytes32",
          "name": "r",
          "type": "bytes32"
        },
        {
          "internalType": "bytes32",
          "name": "s",
          "type": "bytes32"
        }
      ],
      "name": "permit",
      "outputs": [],
      "stateMutability": "nonpayable",
      "type": "function"
    },
    {
      "inputs": [],
      "name": "renounceOwnership",
      "outputs": [],
      "stateMutability": "nonpayable",
      "type": "function"
    },
    {
      "inputs": [],
      "name": "symbol",
      "outputs": [
        {
          "internalType": "string",
          "name": "",
          "type": "string"
        }
      ],
      "stateMutability": "view",
      "type": "function"
    },
    {
      "inputs": [],
      "name": "totalSupply",
      "outputs": [
        {
          "internalType": "uint256",
          "name": "",
          "type": "uint256"
        }
      ],
      "stateMutability": "view",
      "type": "function"
    },
    {
      "inputs": [
        {
          "internalType": "address",
          "name": "to",
          "type": "address"
        },
        {
          "internalType": "uint256",
          "name": "amount",
          "type": "uint256"
        }
      ],
      "name": "transfer",
      "outputs": [
        {
          "internalType": "bool",
          "name": "",
          "type": "bool"
        }
      ],
      "stateMutability": "nonpayable",
      "type": "function"
    },
    {
      "inputs": [
        {
          "internalType": "address",
          "name": "from",
          "type": "address"
        },
        {
          "internalType": "address",
          "name": "to",
          "type": "address"
        },
        {
          "internalType": "uint256",
          "name": "amount",
          "type": "uint256"
        }
      ],
      "name": "transferFrom",
      "outputs": [
        {
          "internalType": "bool",
          "name": "",
          "type": "bool"
        }
      ],
      "stateMutability": "nonpayable",
      "type": "function"
    },
    {
      "inputs": [
        {
          "internalType": "address",
          "name": "newOwner",
          "type": "address"
        }
      ],
      "name": "transferOwnership",
      "outputs": [],
      "stateMutability": "nonpayable",
      "type": "function"
    },
    {
      "inputs": [],
      "name": "unpause",
      "outputs": [],
      "stateMutability": "nonpayable",
      "type": "function"
    }
  ],
  "bytecode": "0x6101806040523480156200001257600080fd5b5060405162001fb738038062001fb78339810160408190526200003591620004ea565b6040518060400160405280600581526020016467434f544960d81b81525080604051806040016040528060018152602001603160f81b815250836040518060400160405280601e81526020017f434f544920547265617375727920476f7665726e616e636520546f6b656e00008152506040518060400160405280600581526020016467434f544960d81b8152508160039081620000d49190620005cf565b506004620000e38282620005cf565b505050600081116200013c5760405162461bcd60e51b815260206004820152601560248201527f45524332304361707065643a206361702069732030000000000000000000000060448201526064015b60405180910390fd5b6080526005805460ff1916905562000154336200022c565b6200016182600662000286565b610140526200017281600762000286565b61016052815160208084019190912061010052815190820120610120524660c052620002026101005161012051604080517f8b73c3c69bb8fe3d512ecc4cf759cc79239f7b179b0ffacaa9a75d522b39400f60208201529081019290925260608201524660808201523060a082015260009060c00160405160208183030381529060405280519060200120905090565b60a05250503060e05250620002188282620002bf565b62000223836200022c565b50505062000732565b600580546001600160a01b03838116610100818102610100600160a81b031985161790945560405193909204169182907f8be0079c531659141344cd1fd0a4f28419497f9722a3daafe3b4186f6b6457e090600090a35050565b6000602083511015620002a6576200029e83620002cf565b9050620002b9565b81620002b38482620005cf565b5060ff90505b92915050565b620002cb828262000312565b5050565b600080829050601f81511115620002fd578260405163305a27a960e01b81526004016200013391906200069b565b80516200030a82620006eb565b179392505050565b608051816200032060025490565b6200032c919062000710565b11156200037c5760405162461bcd60e51b815260206004820152601960248201527f45524332304361707065643a2063617020657863656564656400000000000000604482015260640162000133565b620002cb82826001600160a01b038216620003da5760405162461bcd60e51b815260206004820152601f60248201527f45524332303a206d696e7420746f20746865207a65726f206164647265737300604482015260640162000133565b620003e86000838362000453565b8060026000828254620003fc919062000710565b90915550506001600160a01b038216600081815260208181526040808320805486019055518481527fddf252ad1be2c89b69c2b068fc378daa952ba7f163c4a11628f55a4df523b3ef910160405180910390a35050565b6200046083838362000465565b505050565b60055460ff1615620004605760405162461bcd60e51b815260206004820152602a60248201527f45524332305061757361626c653a20746f6b656e207472616e736665722077686044820152691a5b19481c185d5cd95960b21b606482015260840162000133565b80516001600160a01b0381168114620004e557600080fd5b919050565b6000806000606084860312156200050057600080fd5b6200050b84620004cd565b92506200051b60208501620004cd565b9150604084015190509250925092565b634e487b7160e01b600052604160045260246000fd5b600181811c908216806200055657607f821691505b6020821081036200057757634e487b7160e01b600052602260045260246000fd5b50919050565b601f8211156200046057600081815260208120601f850160051c81016020861015620005a65750805b601f850160051c820191505b81811015620005c757828155600101620005b2565b505050505050565b81516001600160401b03811115620005eb57620005eb6200052b565b6200060381620005fc845462000541565b846200057d565b602080601f8311600181146200063b5760008415620006225750858301515b600019600386901b1c1916600185901b178555620005c7565b600085815260208120601f198616915b828110156200066c578886015182559484019460019091019084016200064b565b50858210156200068b5787850151600019600388901b60f8161c191681555b5050505050600190811b01905550565b600060208083528351808285015260005b81811015620006ca57858101830151858201604001528201620006ac565b506000604082860101526040601f19601f8301168501019250505092915050565b80516020808301519190811015620005775760001960209190910360031b1b16919050565b80820180821115620002b957634e487b7160e01b600052601160045260246000fd5b60805160a05160c05160e051610100516101205161014051610160516118186200079f60003960006105370152600061050c01526000610c5101526000610c2901526000610b8401526000610bae01526000610bd80152600081816101ef01526110ae01526118186000f3fe608060405234801561001057600080fd5b50600436106101735760003560e01c806370a08231116100de5780638da5cb5b11610097578063a9059cbb11610071578063a9059cbb14610327578063d505accf1461033a578063dd62ed3e1461034d578063f2fde38b1461036057600080fd5b80638da5cb5b146102e357806395d89b411461030c578063a457c2d71461031457600080fd5b806370a0823114610269578063715018a61461029257806379cc67901461029a5780637ecebe00146102ad5780638456cb59146102c057806384b0196e146102c857600080fd5b80633644e515116101305780633644e51514610213578063395093511461021b5780633f4ba83a1461022e57806340c10f191461023857806342966c681461024b5780635c975abb1461025e57600080fd5b806306fdde0314610178578063095ea7b31461019657806318160ddd146101b957806323b872dd146101cb578063313ce567146101de578063355274ea146101ed575b600080fd5b610180610373565b60405161018d919061156b565b60405180910390f35b6101a96101a43660046115a1565b610405565b604051901515815260200161018d565b6002545b60405190815260200161018d565b6101a96101d93660046115cb565b61041f565b6040516012815260200161018d565b7f00000000000000000000000000000000000000000000000000000000000000006101bd565b6101bd610443565b6101a96102293660046115a1565b610452565b610236610474565b005b6102366102463660046115a1565b610486565b610236610259366004611607565b61049c565b60055460ff166101a9565b6101bd610277366004611620565b6001600160a01b031660009081526020819052604090205490565b6102366104a9565b6102366102a83660046115a1565b6104bb565b6101bd6102bb366004611620565b6104d0565b6102366104ee565b6102d06104fe565b60405161018d979695949392919061163b565b60055461010090046001600160a01b03166040516001600160a01b03909116815260200161018d565b610180610587565b6101a96103223660046115a1565b610596565b6101a96103353660046115a1565b610616565b6102366103483660046116d1565b610624565b6101bd61035b366004611744565b610788565b61023661036e366004611620565b6107b3565b60606003805461038290611777565b80601f01602080910402602001604051908101604052809291908181526020018280546103ae90611777565b80156103fb5780601f106103d0576101008083540402835291602001916103fb565b820191906000526020600020905b8154815290600101906020018083116103de57829003601f168201915b5050505050905090565b600033610413818585610829565b60019150505b92915050565b60003361042d85828561094e565b6104388585856109c8565b506001949350505050565b600061044d610b77565b905090565b6000336104138185856104658383610788565b61046f91906117ab565b610829565b61047c610ca2565b610484610d02565b565b61048e610ca2565b6104988282610d54565b5050565b6104a63382610d5e565b50565b6104b1610ca2565b6104846000610e99565b6104c682338361094e565b6104988282610d5e565b6001600160a01b038116600090815260086020526040812054610419565b6104f6610ca2565b610484610ef3565b6000606080828080836105327f00000000000000000000000000000000000000000000000000000000000000006006610f30565b61055d7f00000000000000000000000000000000000000000000000000000000000000006007610f30565b60408051600080825260208201909252600f60f81b9b939a50919850469750309650945092509050565b60606004805461038290611777565b600033816105a48286610788565b9050838110156106095760405162461bcd60e51b815260206004820152602560248201527f45524332303a2064656372656173656420616c6c6f77616e63652062656c6f77604482015264207a65726f60d81b60648201526084015b60405180910390fd5b6104388286868403610829565b6000336104138185856109c8565b834211156106745760405162461bcd60e51b815260206004820152601d60248201527f45524332305065726d69743a206578706972656420646561646c696e650000006044820152606401610600565b60007f6e71edae12b1b97f4d1f60370fef10105fa2faae0126114a169c64845d6126c98888886106a38c610fdb565b6040805160208101969096526001600160a01b0394851690860152929091166060840152608083015260a082015260c0810186905260e00160405160208183030381529060405280519060200120905060006106fe82611003565b9050600061070e82878787611030565b9050896001600160a01b0316816001600160a01b0316146107715760405162461bcd60e51b815260206004820152601e60248201527f45524332305065726d69743a20696e76616c6964207369676e617475726500006044820152606401610600565b61077c8a8a8a610829565b50505050505050505050565b6001600160a01b03918216600090815260016020908152604080832093909416825291909152205490565b6107bb610ca2565b6001600160a01b0381166108205760405162461bcd60e51b815260206004820152602660248201527f4f776e61626c653a206e6577206f776e657220697320746865207a65726f206160448201526564647265737360d01b6064820152608401610600565b6104a681610e99565b6001600160a01b03831661088b5760405162461bcd60e51b8152602060048201526024808201527f45524332303a20617070726f76652066726f6d20746865207a65726f206164646044820152637265737360e01b6064820152608401610600565b6001600160a01b0382166108ec5760405162461bcd60e51b815260206004820152602260248201527f45524332303a20617070726f766520746f20746865207a65726f206164647265604482015261737360f01b6064820152608401610600565b6001600160a01b0383811660008181526001602090815260408083209487168084529482529182902085905590518481527f8c5be1e5ebec7d5bd14f71427d1e84f3dd0314c0f7b2291e5b200ac8c7c3b92591015b60405180910390a3505050565b600061095a8484610788565b905060001981146109c257818110156109b55760405162461bcd60e51b815260206004820152601d60248201527f45524332303a20696e73756666696369656e7420616c6c6f77616e63650000006044820152606401610600565b6109c28484848403610829565b50505050565b6001600160a01b038316610a2c5760405162461bcd60e51b815260206004820152602560248201527f45524332303a207472616e736665722066726f6d20746865207a65726f206164604482015264647265737360d81b6064820152608401610600565b6001600160a01b038216610a8e5760405162461bcd60e51b815260206004820152602360248201527f45524332303a207472616e7366657220746f20746865207a65726f206164647260448201526265737360e81b6064820152608401610600565b610a99838383611058565b6001600160a01b03831660009081526020819052604090205481811015610b115760405162461bcd60e51b815260206004820152602660248201527f45524332303a207472616e7366657220616d6f756e7420657863656564732062604482015265616c616e636560d01b6064820152608401610600565b6001600160a01b03848116600081815260208181526040808320878703905593871680835291849020805487019055925185815290927fddf252ad1be2c89b69c2b068fc378daa952ba7f163c4a11628f55a4df523b3ef910160405180910390a36109c2565b6000306001600160a01b037f000000000000000000000000000000000000000000000000000000000000000016148015610bd057507f000000000000000000000000000000000000000000000000000000000000000046145b15610bfa57507f000000000000000000000000000000000000000000000000000000000000000090565b61044d604080517f8b73c3c69bb8fe3d512ecc4cf759cc79239f7b179b0ffacaa9a75d522b39400f60208201527f0000000000000000000000000000000000000000000000000000000000000000918101919091527f000000000000000000000000000000000000000000000000000000000000000060608201524660808201523060a082015260009060c00160405160208183030381529060405280519060200120905090565b6005546001600160a01b036101009091041633146104845760405162461bcd60e51b815260206004820181905260248201527f4f776e61626c653a2063616c6c6572206973206e6f7420746865206f776e65726044820152606401610600565b610d0a611063565b6005805460ff191690557f5db9ee0a495bf2e6ff9c91a7834c1ba4fdd244a5e8aa4e537bd38aeae4b073aa335b6040516001600160a01b03909116815260200160405180910390a1565b61049882826110ac565b6001600160a01b038216610dbe5760405162461bcd60e51b815260206004820152602160248201527f45524332303a206275726e2066726f6d20746865207a65726f206164647265736044820152607360f81b6064820152608401610600565b610dca82600083611058565b6001600160a01b03821660009081526020819052604090205481811015610e3e5760405162461bcd60e51b815260206004820152602260248201527f45524332303a206275726e20616d6f756e7420657863656564732062616c616e604482015261636560f01b6064820152608401610600565b6001600160a01b0383166000818152602081815260408083208686039055600280548790039055518581529192917fddf252ad1be2c89b69c2b068fc378daa952ba7f163c4a11628f55a4df523b3ef9101610941565b505050565b600580546001600160a01b03838116610100818102610100600160a81b031985161790945560405193909204169182907f8be0079c531659141344cd1fd0a4f28419497f9722a3daafe3b4186f6b6457e090600090a35050565b610efb611139565b6005805460ff191660011790557f62e78cea01bee320cd4e420270b5ea74000d11b0c9f74754ebdbfc544b05a258610d373390565b606060ff8314610f4a57610f438361117f565b9050610419565b818054610f5690611777565b80601f0160208091040260200160405190810160405280929190818152602001828054610f8290611777565b8015610fcf5780601f10610fa457610100808354040283529160200191610fcf565b820191906000526020600020905b815481529060010190602001808311610fb257829003601f168201915b50505050509050610419565b6001600160a01b03811660009081526008602052604090208054600181018255905b50919050565b6000610419611010610b77565b8360405161190160f01b8152600281019290925260228201526042902090565b6000806000611041878787876111be565b9150915061104e81611282565b5095945050505050565b610e948383836113cc565b60055460ff166104845760405162461bcd60e51b815260206004820152601460248201527314185d5cd8589b194e881b9bdd081c185d5cd95960621b6044820152606401610600565b7f0000000000000000000000000000000000000000000000000000000000000000816110d760025490565b6110e191906117ab565b111561112f5760405162461bcd60e51b815260206004820152601960248201527f45524332304361707065643a20636170206578636565646564000000000000006044820152606401610600565b6104988282611432565b60055460ff16156104845760405162461bcd60e51b815260206004820152601060248201526f14185d5cd8589b194e881c185d5cd95960821b6044820152606401610600565b6060600061118c836114fd565b604080516020808252818301909252919250600091906020820181803683375050509182525060208101929092525090565b6000807f7fffffffffffffffffffffffffffffff5d576e7357a4501ddfe92f46681b20a08311156111f55750600090506003611279565b6040805160008082526020820180845289905260ff881692820192909252606081018690526080810185905260019060a0016020604051602081039080840390855afa158015611249573d6000803e3d6000fd5b5050604051601f1901519150506001600160a01b03811661127257600060019250925050611279565b9150600090505b94509492505050565b6000816004811115611296576112966117cc565b0361129e5750565b60018160048111156112b2576112b26117cc565b036112ff5760405162461bcd60e51b815260206004820152601860248201527f45434453413a20696e76616c6964207369676e617475726500000000000000006044820152606401610600565b6002816004811115611313576113136117cc565b036113605760405162461bcd60e51b815260206004820152601f60248201527f45434453413a20696e76616c6964207369676e6174757265206c656e677468006044820152606401610600565b6003816004811115611374576113746117cc565b036104a65760405162461bcd60e51b815260206004820152602260248201527f45434453413a20696e76616c6964207369676e6174757265202773272076616c604482015261756560f01b6064820152608401610600565b60055460ff1615610e945760405162461bcd60e51b815260206004820152602a60248201527f45524332305061757361626c653a20746f6b656e207472616e736665722077686044820152691a5b19481c185d5cd95960b21b6064820152608401610600565b6001600160a01b0382166114885760405162461bcd60e51b815260206004820152601f60248201527f45524332303a206d696e7420746f20746865207a65726f2061646472657373006044820152606401610600565b61149460008383611058565b80600260008282546114a691906117ab565b90915550506001600160a01b038216600081815260208181526040808320805486019055518481527fddf252ad1be2c89b69c2b068fc378daa952ba7f163c4a11628f55a4df523b3ef910160405180910390a35050565b600060ff8216601f81111561041957604051632cd44ac360e21b815260040160405180910390fd5b6000815180845260005b8181101561154b5760208185018101518683018201520161152f565b506000602082860101526020601f19601f83011685010191505092915050565b60208152600061157e6020830184611525565b9392505050565b80356001600160a01b038116811461159c57600080fd5b919050565b600080604083850312156115b457600080fd5b6115bd83611585565b946020939093013593505050565b6000806000606084860312156115e057600080fd5b6115e984611585565b92506115f760208501611585565b9150604084013590509250925092565b60006020828403121561161957600080fd5b5035919050565b60006020828403121561163257600080fd5b61157e82611585565b60ff60f81b881681526000602060e08184015261165b60e084018a611525565b838103604085015261166d818a611525565b606085018990526001600160a01b038816608086015260a0850187905284810360c0860152855180825283870192509083019060005b818110156116bf578351835292840192918401916001016116a3565b50909c9b505050505050505050505050565b600080600080600080600060e0888a0312156116ec57600080fd5b6116f588611585565b965061170360208901611585565b95506040880135945060608801359350608088013560ff8116811461172757600080fd5b9699959850939692959460a0840135945060c09093013592915050565b6000806040838503121561175757600080fd5b61176083611585565b915061176e60208401611585565b90509250929050565b600181811c9082168061178b57607f821691505b602082108103610ffd57634e487b7160e01b600052602260045260246000fd5b8082018082111561041957634e487b7160e01b600052601160045260246000fd5b634e487b7160e01b600052602160045260246000fdfea2646970667358221220c20ee53d85a8de7fbaa07977b5ff726ddbafdf4f22a3e2f3a3880966b90df01564736f6c63430008130033",
  "linkReferences": {},
  "deployedLinkReferences": {}
}